:020000040800F2
:10000000080C00200D020008BD150008F3020008CE
:10001000B91500082507000839190008000000007C
:100020000000000000000000000000001F020008A7
:1000300029070008000000007B02000821160008C4
:1000400027020008270200082702000827020008EC
:1000500027020008270200082702000827020008DC
:1000600027020008270200082702000827020008CC
:1000700027020008270200082702000827020008BC
:1000800027020008270200082702000827020008AC
:10009000270200082702000827020008270200089C
:1000A000270200082702000827020008270200088C
:1000B000270200082702000827020008270200087C
:1000C000270200082702000827020008270200086C
:1000D000270200082119000827020008270200084B
:1000E000270200082702000827020008270200084C
:1000F000270200082702000827020008270200083C
:10010000270200082702000827020008270200082B
:10011000270200082702000827020008270200081B
:10012000270200082702000827020008270200080B
:1001300000F002F800F05AF80AA090E8000C82449F
:100140008344AAF10107DA4501D100F04FF8AFF27C
:10015000090EBAE80F0013F0010F18BFFB1A43F0A5
:1001600001031847008C0000208C00000A444FF067
:10017000000C10F8013B13F0070408BF10F8014B06
:100180001D1108BF10F8015B641E05D010F8016B4B
:10019000641E01F8016BF9D113F0080F1EBF10F8AF
:1001A000014BAD1C0C1B09D16D1E58BF01F801CBD2
:1001B000FAD505E014F8016B01F8016B6D1EF9D555
:1001C0009142D6D37047000000230024002500266A
:1001D000103A28BF78C1FBD8520728BF30C148BFAA
:1001E0000B6070471FB51FBD10B510BD00F060FA61
:1001F0001146FFF7F7FF00F08EFA00F07EFA03B425
:10020000FFF7F2FF03BC00F07FFA000009488047C7
:1002100009480047FEE7FEE7FEE7FEE7FEE7FEE7E8
:10022000FEE7FEE7FEE7FEE704480549054A064B00
:10023000704700000117000831010008080600207F
:10024000080C00200808002008080020EFF31080A8
:1002500072B6704780F310887047334A1368012BD9
:1002600004D04FF001031360304A1060304A11602F
:1002700030484FF0805101607047EFF3108272B642
:100280002948016891B14FF00001016027480168D9
:1002900029B1EFF3098121E9F00F006801602449D9
:1002A00009680968B1E8F00F81F3098882F31088C2
:1002B0004EF0040E70471E4908601C494FF00000C4
:1002C000086019494FF0010008601B484FF47F0196
:1002D000D0F8002041EA0201016016484FF0805139
:1002E000016016480068006880F3088861B662B64D
:1002F00070471EF0040F0CBFEFF30880EFF3098086
:1003000020E9F00F40F804ED1EF0040F0CBF80F35D
:10031000088880F3098800B504F0E4FC5DF804EB7C
:100320004EF0040E704700007C0100207401002094
:100330007801002004ED00E020ED00E008ED00E091
:1003400040EA010310B59B070FD1042A0DD310C852
:1003500008C9121F9C42F8D020BA19BA884201D9A4
:10036000012010BD4FF0FF3010BD1AB1D30703D0EC
:10037000521C07E0002010BD10F8013B11F8014BA2
:100380001B1B07D110F8013B11F8014B1B1B01D1BE
:10039000921EF1D1184610BD40EA0103024630B565
:1003A0009B0710D14FF0013400E008C208C91D1BA3
:1003B0009D4315EAC41FF8D013F0FF0102F8011B9A
:1003C0000DD01B0AF8E711F8013B002B02F8013BA6
:1003D00005D011F8013B002B02F8013BF3D130BDF1
:1003E00010B5431C02E010F8011B71B18107FAD16E
:1003F0004FF0013202C88C1A8C4314EAC211F9D0B2
:10040000C01A0A0603D0C01E10BDC01A10BD0A04CF
:1004100001D0801E10BD0902FCD0401E10BD40EA74
:10042000010370B59B072ED14FF00136042A2AD361
:1004300008C810C99D1B9D43121F15EAC61517D089
:10044000D8B2E1B2401A50EA056110D198B2A1B217
:10045000401A50EA05410AD123F07F4024F07F4141
:10046000401A50EA052102D1180EA0EB146070BDAD
:10047000A342DBD018BA21BA884201D9012070BD4D
:100480004FF0FF3070BD0AB9002070BD10F8013B7D
:1004900011F8014B63B1A3420AD1521E08D010F8E3
:1004A000013B11F8014B1BB1A34201D1521EEDD10A
:1004B000181B70BD421E12F8013F002BFBD111F832
:1004C000013B002B02F8013BF9D17047032A40F2AF
:1004D000308010F0030C00F0158011F8013BBCF1E6
:1004E000020F624498BF11F801CB00F8013B38BFFE
:1004F00011F8013BA2F1040298BF00F801CB38BF0C
:1005000000F8013B11F0030300F02580083AC0F029
:10051000088051F8043B083A51F804CBA0E80810D1
:10052000F5E7121D5CBF51F8043B40F8043BAFF304
:100530000080D20724BF11F8013B11F801CB48BF5E
:1005400011F8012B24BF00F8013B00F801CB48BF94
:1005500000F8012B704710B5203AC0F00B80B1E8CD
:100560001850203AA0E81850B1E81850A0E81850E8
:10057000BFF4F5AF5FEA027C24BFB1E81850A0E8F1
:10058000185044BF18C918C0BDE810405FEA827C0B
:1005900024BF51F8043B40F8043B08BF7047D20722
:1005A00028BF31F8023B48BF11F8012B28BF20F8C3
:1005B000023B48BF00F8012B70474FF000020429AE
:1005C000C0F0128010F0030C00F01B80CCF1040C82
:1005D000BCF1020F18BF00F8012BA8BF20F8022BB6
:1005E000A1EB0C0100F00DB85FEAC17C24BF00F85C
:1005F000012B00F8012B48BF00F8012B70474FF08A
:10060000000200B5134694469646203922BFA0E862
:100610000C50A0E80C50B1F12001BFF4F7AF09076E
:1006200028BFA0E80C5048BF0CC05DF804EB89005F
:1006300028BF40F8042B08BF704748BF20F8022BA2
:1006400011F0804F18BF00F8012B704710B5044619
:1006500010F0030F08BF11F0030F40F015804FF0AA
:10066000013E121FC0F20E8051F8043BA3EB0E0CAA
:100670002CEA030C1CEACE1C08BF40F8043BF0D067
:10068000A1F1040102F10402521E08DB11F8013B42
:10069000002B00F8013BF7D11146FFF78EFF2046F3
:1006A00010BD70477047704700487047A405002090
:1006B0007546FFF7F9FFAE4605006946534620F040
:1006C0000700854618B020B5FFF7AEFDBDE8204015
:1006D0004FF000064FF000074FF000084FF0000BFE
:1006E00021F00701AC46ACE8C009ACE8C009ACE8B1
:1006F000C009ACE8C0098D4670470446AFF30080DE
:100700002046FFF77CFD000001491820ABBEFEE744
:1007100026000200704710B5FFF798FD06F092FF23
:10072000002010BD00BFFEE7704701B5009901EB46
:100730008101480002F03CFF08BD00002DE9F847A8
:1007400002460024002000258446002700237BE188
:100750004FF0010808FA03F4D1F8008008EA040019
:10076000A0427DD1DFF8ECA2D1F80480A8EB0A0901
:10077000D0453AD014DCB8F1030F50D009DCB8F101
:10078000000F31D0B8F1010F1CD0B8F1020F49D1E0
:1007900020E0B8F1110F18D0B8F1120F42D11EE0CD
:1007A000B9F5881F25D006DCB9F5803F20D0B9F512
:1007B000801F37D11AE0B9F5001F18D0B9F5041F12
:1007C00030D117E0D1F80CC02DE0D1F80C8008F141
:1007D000040C28E0D1F80C8008F1080C23E0D1F8D3
:1007E0000C8008F10C0C1EE000BF00BF00BF00BF72
:1007F00000BF00BFD1F80880B8F1000F02D14FF060
:10080000040C0BE0D1F80880B8F1010F03D14FF0D0
:10081000080C146102E04FF0080C546103E04FF043
:10082000000C00E000BF00BFFF2801D8904601E0A7
:1008300002F104084646FF2802D84FEA830803E085
:10084000A3F108084FEA88084746D6F800804FF021
:100850000F0909FA07F928EA09080CFA07F900E074
:100860007AE048EA0908C6F80080D1F8048008F068
:100870008058B8F1805F6FD100BFDFF8DC81D8F815
:10088000188048F00108DFF8D091C9F81880C846F0
:10089000D8F8188008F00108CDF8008000BF00BF2C
:1008A0004FEAB9384FEA930958F829504FEA83784C
:1008B0004FEA18794FF00F0808FA09F825EA0805F9
:1008C000DFF89881424502D14FF0000824E0DFF8BC
:1008D0009081424502D14FF001081DE0DFF884818C
:1008E000424502D14FF0020816E0DFF87C81424514
:1008F00002D14FF003080FE0DFF87081424502D1CA
:100900004FF0040808E0DFF86881424502D14FF05B
:10091000050801E04FF006084FEA83794FEA19799C
:1009200008FA09F848EA0505DFF848814FEA930913
:1009300048F82950D1F8048008F48038B8F5803F91
:100940000BD1DFF83481D8F8008048EA0008DFF8DE
:100950002891C9F800800AE075E0DFF81C81D8F81A
:10096000008028EA0008DFF81091C9F80080D1F86B
:10097000048008F40038B8F5003F0ED1DFF8F880A5
:1009800008F10408D8F8008048EA0008DFF8E89089
:1009900009F10409C9F800800DE0DFF8DC8008F1F6
:1009A0000408D8F8008028EA0008DFF8CC9009F1A4
:1009B0000409C9F80080D1F8048008F48018B8F55B
:1009C000801F0ED1DFF8B08008F10808D8F8008049
:1009D00048EA0008DFF8A09009F10809C9F800808A
:1009E0000DE0DFF8948008F10808D8F8008028EAC4
:1009F0000008DFF8849009F10809C9F80080D1F8EF
:100A0000048008F40018B8F5001F0ED1DFF86880E4
:100A100008F10C08D8F8008048EA0008DFF8589080
:100A200009F10C09C9F800800DE0DFF84C8008F1ED
:100A30000C08D8F8008028EA0008DFF83C9009F19B
:100A40000C09C9F800805B1C102BFFF481AEBDE8D7
:100A5000F88700000000111000100240000801405B
:100A6000000C01400010014000140140001801403A
:100A7000001C0140080001400004014010B50120A5
:100A8000FFF753FE03480068401C0249086008460F
:100A9000006810BD4400002002480068401C014965
:100AA000086070474400002010B50848006840F016
:100AB000100006490860032000F0B4F80F2000F091
:100AC00007F800F019F8002010BD000000200240D7
:100AD00070B50446074800684FF47A71B0FBF1F531
:100AE000284600F02BFC00222146501E00F05BF847
:100AF000002070BD4800002008B5032000F092F8E7
:100B000000BF2048806940F001001E498861084606
:100B1000806900F00100009000BF00BF0022114674
:100B20006FF00B0000F03FF8002211466FF00A0052
:100B300000F039F8002211466FF0090000F033F898
:100B400000221146501F00F02EF800221146101FFF
:100B500000F029F800220F21901E00F024F8002256
:100B60000F21501E00F01FF800BF0748406820F01A
:100B7000E060054948600846406840F00070486001
:100B800000BF08BD001002400000014000BF00F09F
:100B90001F02012191404209920002F1E022C2F8B5
:100BA000001100BF70472DE9F05F80460D461646E4
:100BB000002700F005FD074639462A46334601F076
:100BC0000700C0F1070ABAF1040F02D94FF0040A76
:100BD00001E0C0F1070AD14600F1040ABAF1070F9B
:100BE00002D24FF0000A01E0A0F1030AD4464FF010
:100BF000010A0AFA09FAAAF1010A0AEA020A0AFA39
:100C00000CFA4FF0010B0BFA0CFBABF1010B0BEAEA
:100C1000030B4AEA0B042146404600F0D9FCBDE82C
:100C2000F09F000000BF00F00702064B19684FF666
:100C3000FF031940044B0B4343EA0221014B1960A7
:100C400000BF70470CED00E00000FA0570B50446E7
:100C50000D4600266248006800F00700A8420ED248
:100C60005F48006820F0070028435D490860084697
:100C7000006800F00700A84201D0012070BD207874
:100C800000F00200022807D15648406820F0F0002A
:100C9000A168084353494860207800F0010000280B
:100CA0005DD06068012806D14E48006800F400302D
:100CB00090B90120E2E76068022806D1494800683F
:100CC00000F0007040B90120D8E74648006800F005
:100CD000020008B90120D1E74248406820F0030033
:100CE000616808433F494860FFF7C8FE06466068F0
:100CF000012810D108E0FFF7C1FE801B41F28831C6
:100D0000884201D90320B9E73648406800F00C005A
:100D10000428F0D123E06068022810D108E0FFF732
:100D2000ADFE801B41F28831884201D90320A5E73E
:100D30002C48406800F00C000828F0D10FE008E0D3
:100D4000FFF79CFE801B41F28831884201D90320C5
:100D500094E72448406800F00C000028F0D12048B7
:100D6000006800F00700A8420ED91D48006820F076
:100D7000070028431A4908600846006800F0070089
:100D8000A84201D0012079E7207800F0040004286F
:100D900007D11448406820F4E060E1680843114935
:100DA0004860207800F00800082808D10D48406805
:100DB00020F46050216940EAC1000A49486000F00F
:100DC0003DF808494968C1F30311074A515CC8401E
:100DD000064908600F20FFF77BFE00204EE7000069
:100DE0000020024000100240E77B0008480000207D
:100DF00001480068704700004800002000B5FFF778
:100E0000F7FF04494968C1F30221034A515CC84015
:100E100000BD000000100240F77B000800B5FFF79E
:100E2000E7FF04494968C1F3C221034A515CC84045
:100E300000BD000000100240F77B0008F0B585B04F
:100E40000FF2700C9CE8E01001A8A0E8E0101DA5CE
:100E50002D680095002100240022002300201A4D57
:100E6000696801F00C05FDB1042D02D0082D1AD1DE
:100E700001E016481AE001ADC1F38346AB5D01F411
:100E800080355DB1104D6D68C5F340451DF80540D6
:100E90000E4DB5FBF4F505FB03F202E00C4D03FB30
:100EA00005F2104602E000BF084800BF00BF05B0D1
:100EB000F0BD000002030405060708090A0B0C0D2B
:100EC0000E0F1010010200000010024000127A0004
:100ED00000093D00F8B504460025207800F0010027
:100EE000002878D0F848406800F00C0004280CD0A6
:100EF000F548406800F00C00082811D1F24840681D
:100F000000F48030B0F5803F0AD1EF48006800F46B
:100F1000003000285FD0606800285CD10120F8BD57
:100F200000BF6068B0F5803F06D1E748006840F434
:100F30008030E549086028E0606858B9E2480068F8
:100F400020F48030E04908600846006820F48020E2
:100F500008601AE06068B0F5A02F0BD1DA4800688D
:100F600040F48020D84908600846006840F480308A
:100F700008600AE0D448006820F48030D249086054
:100F80000846006820F48020086000BF606888B1CF
:100F9000FFF774FD054606E0FFF770FD401B64286F
:100FA00001D90320BBE7C848006800F400300028DE
:100FB000F2D010E0FFF762FD054606E0FFF75EFDA8
:100FC000401B642801D90320A9E7BF48006800F44A
:100FD00000300028F2D1207800F00200022857D11A
:100FE000B948406800F00C0050B1B748406800F0C4
:100FF0000C00082818D1B448406800F4803098B933
:10100000B148006800F0020020B12069012801D039
:10101000012084E7AC48006820F0F800616940EAEC
:10102000C100A949086033E02069E8B10120A7495F
:101030000860FFF723FD054606E0FFF71FFD401B94
:10104000022801D903206AE79F48006800F00200E7
:101050000028F2D09C48006820F0F800616940EA5E
:10106000C1009949086013E0002098490860FFF723
:1010700005FD054606E0FFF701FD401B022801D9EA
:1010800003204CE79048006800F002000028F2D1ED
:10109000207800F0080008282DD1A069B8B10120FF
:1010A0008B490860FFF7EAFC054606E0FFF7E6FC1F
:1010B000401B022801D9032031E78348406A00F031
:1010C00002000028F2D0012000F096FA13E0002080
:1010D0007F490860FFF7D2FC054606E0FFF7CEFC2B
:1010E000401B022801D9032019E77748406A00F025
:1010F00002000028F2D1207800F00400042873D107
:1011000000267148C06900F0805070B900BF6E4879
:10111000C06940F080506C49C8610846C06900F061
:101120008050009000BF00BF01266A48006800F4AC
:101130008070B0B96748006840F480706549086005
:10114000FFF79CFC054606E0FFF798FC401B64286F
:1011500001D90320E3E65F48006800F480700028AE
:10116000F2D000BFE068012806D15748006A40F07D
:1011700001005549086227E0E06858B95248006A02
:1011800020F00100504908620846006A20F004007F
:10119000086219E0E06805280BD14B48006A40F06E
:1011A0000400494908620846006A40F001000862EC
:1011B0000AE04548006A20F00100434908620846F9
:1011C000006A20F00400086200BFE068A0B1FFF7E9
:1011D00055FC054609E0FFF751FC401B41F2883100
:1011E000884202D903209AE622E03748006A00F0DC
:1011F00002000028EFD012E0FFF740FC054608E0AF
:10120000FFF73CFC401B41F28831884201D90320A2
:1012100085E62D48006A00F002000028F0D1012E7A
:1012200005D12948C06920F080502749C86100BF16
:10123000E069C8B32448406800F00C00082860D07A
:10124000E069022848D1002020490866FFF716FC13
:10125000054606E0FFF712FC401B022801D90320D7
:101260005DE61948006800F000700028F2D1206A9D
:10127000B0F5803F07D11448406820F40030A168E1
:10128000084311494860D4E9080108430E494968F8
:1012900021F4741108430C49486001200B49086689
:1012A000FFF7ECFB054607E02DE0FFF7E7FB401BEF
:1012B000022801D9032032E60348006800F00070DC
:1012C0000028F2D01FE0000000100240000042425F
:1012D000800442420070004000200C490866FFF77D
:1012E000CDFB054606E0FFF7C9FB401B022801D9EC
:1012F000032014E60648006800F000700028F2D1D0
:1013000001E001200BE6002009E600000000424257
:1013100000100240042808D14FF0E021096941F093
:1013200004014FF0E022116107E04FF0E02109696C
:1013300021F004014FF0E0221161704770B50446BE
:101340002546681EB0F1807F01D301200FE0681EA2
:101350004FF0E02148610F214FF0FF3000F038F9E5
:1013600000204FF0E021886107200861002070BD57
:1013700010B504460CB9012010BDA06900B100E011
:1013800000BF94F8390028B9002084F838002046BE
:1013900000F028F8242084F839002068C06820F480
:1013A00000502168C860204600F0D6F92068006926
:1013B00020F49040216808612068406920F02A00EC
:1013C000216848612068C06840F400502168C86006
:1013D0000020E063202084F8390084F83A000020DF
:1013E000CAE7000010B586B004465A492068884212
:1013F00037D100BF5848806940F480405649886121
:101400000846806900F48040019000BF00BF00BF23
:101410000846806940F0040088610846806900F051
:101420000400019000BF00BF481502900220039005
:101430000320059002A94948FFF780F94FF4806026
:10144000029000200390049002A94448FFF776F927
:10145000002205212520FFF7A6FB2520FFF796FB9C
:1014600075E03F492068884236D100BF3A48C069DC
:1014700040F400303849C8610846C06900F40030C3
:10148000019000BF00BF00BF0846806940F0040023
:1014900088610846806900F00400019000BF00BF29
:1014A00004200290022003900320059002A92B48FB
:1014B000FFF744F90820029000200390049002A94D
:1014C0002648FFF73BF9002205212620FFF76BFB9A
:1014D0002620FFF75BFB3AE022492068884236D19C
:1014E00000BF1D48C06940F480201B49C861084600
:1014F000C06900F48020019000BF00BF00BF084613
:10150000806940F0080088610846806900F00800A2
:10151000019000BF00BF0815029002200390032035
:10152000059002A91048FFF709F94FF400600290F6
:1015300000200390049002A90B48FFF7FFF8002257
:1015400005212720FFF72FFB2720FFF71FFB06B001
:1015500010BD0000003801400010024000080140AA
:101560000044004000480040000C014070B50446B3
:101570004FF4E13060600021A160E16021610C2145
:1015800061610021A161E1612046FFF7F1FE05469E
:101590002DB14FF48A72024902A002F0B1FB70BD76
:1015A000D47B0008726573756C74203D3D20484102
:1015B0004C5F4F4B0000000000BFFEE7704700008B
:1015C00002480068C0F30220704700000CED00E004
:1015D00010B5002807DA0A07140E054A00F00F03B9
:1015E0001B1FD45403E00A07130E024A135410BD04
:1015F00018ED00E000E400E008B508490968C908F2
:101600004FF47A72B1FBF2F14143009100BF00BF89
:1016100000994A1E00920029F9D108BD4800002017
:1016200010B503F0E1FDFFF737FA05F0D9FB03F041
:10163000FDFD10BD30B58FB00024012005900004E1
:101640000690002007900120099002200C90C10311
:101650000D914FF4E0110E9105A8FFF73BFC0446F5
:10166000032C1BD12822002105A804F0AAF802208F
:1016700005900120099010200A9002200C90002172
:101680000D914FF460110E9105A8FFF723FC04465D
:1016900024B14B22154916A002F032FB0F20009016
:1016A00002200190002002904FF4806003900020FF
:1016B000049002216846FFF7C9FA044624B1562275
:1016C0000A490BA002F01CFBFFF792FB6421B0FB60
:1016D000F1F52846FFF732FE0420FFF71BFE00223B
:1016E0000F21501EFFF75FFA0FB030BD627B00087C
:1016F000726574203D3D2048414C5F4F4B00000017
:101700001148006840F001000F4908600846406831
:101710000E4908400C494860084600680C490840DA
:10172000094908600846006820F4802008600846DF
:10173000406820F4FE0048604FF41F008860C80332
:101740000449086070470000001002400000FFF8E4
:10175000FFFFF6FE08ED00E02DE9F041044600250C
:101760002068006920F44050E1680843216808615E
:101770002169A06808436169084305432068C0687F
:1017800041F20C61884328432168C86020684069A1
:1017900020F44070A1690843216848615F492068CE
:1017A00088425CD1FFF73AFB00EBC00101EB00106F
:1017B00061688900B0FBF1F6FFF730FB00EBC00178
:1017C00001EB001061688900B0FBF1F06421B0FB0F
:1017D000F1F000EBC00101EB0010A6EB800032211C
:1017E00001EB00106421B0FBF1F000F0F006FFF710
:1017F00015FB00EBC00101EB001061688900B0FB34
:10180000F1F06421B0FBF1F006EB0016FFF706FBE8
:1018100000EBC00101EB001061688900B0FBF1F73B
:10182000FFF7FCFA00EBC00101EB001061688900D2
:10183000B0FBF1F06421B0FBF1F000EBC00101EB73
:101840000010A7EB8000322101EB00106421B0FBF7
:10185000F1F000F00F003044216888605BE0FFF792
:10186000CDFA00EBC00101EB001061688900B0FB0C
:10187000F1F6FFF7C3FA00EBC00101EB001061685D
:101880008900B0FBF1F06421B0FBF1F000EBC00186
:1018900001EB0010A6EB8000322101EB0010642167
:1018A000B0FBF1F000F0F006FFF7A8FA00EBC00182
:1018B00001EB001061688900B0FBF1F06421B0FB1E
:1018C000F1F006EB0016FFF799FA00EBC00101EB0F
:1018D000001061688900B0FBF1F7FFF78FFA00EBA9
:1018E000C00101EB001061688900B0FBF1F06421D8
:1018F000B0FBF1F000EBC00101EB0010A7EB8000A2
:10190000322101EB00106421B0FBF1F000F00F0078
:10191000304421688860BDE8F08100000038014053
:1019200010B503F061FC034806F07CF803F07EFC80
:1019300010BD00009C01002000BFFEE7014609B970
:1019400000207047C8B220B1C8B20E4A105C401CDB
:10195000F7E701F47F4028B10A48C1F30722805C11
:101960000930EEE701F47F0028B10648C1F30742D1
:10197000805C1130E5E7034800EB11600078193016
:10198000DFE70000E97E000803490868884201D0CB
:10199000012070470020FCE74C0100202DE9F041B8
:1019A00096B005465022194902A8FEF7D4FD18A7A3
:1019B0002946384601F0FEFF80463A46414616A0C9
:1019C00003F09AFC404602F019F81DA003F094FCC5
:1019D0002E6814E0A6F10C04A17E207D132804DCFF
:1019E000207D02AA52F8200000E015982346082224
:1019F000CDE9000141461BA003F07EFC3668AE42F3
:101A0000E8D1002016B0BDE8F0810000E4830008B2
:101A10006465766963650000252D2A2E73202020D9
:101A20002020202020207479706520202020202074
:101A300020202072656620636F756E740A000000B6
:101A4000202D2D2D2D2D2D2D2D2D2D2D2D2D2D2DD3
:101A50002D2D2D2D2D202D2D2D2D2D2D2D2D2D2DC3
:101A60000A000000252D2A2E2A7320252D323073DE
:101A700020252D38640A00002DE9FC4705461FA7E4
:101A80002946384601F096FF81463A4649461DA050
:101A900003F032FC484601F0B1FF23A003F02CFC18
:101AA0002E6825E0A6F10C0404F1140003F0A7FC55
:101AB000A8B904F1140003F0AAFC8046E0692346AB
:101AC00008224946CDE900081FA003F015FC04F1E7
:101AD000140005F06DFE13A003F00EFC07E0E069B2
:101AE00023460822494600901DA003F005FC3668F5
:101AF000AE42D7D10020BDE8FC8700006576656E58
:101B000074000000252D2A2E732020202020207311
:101B100065742020202073757370656E642074686E
:101B2000726561640A00000020202D2D2D2D2D2DC1
:101B30002D2D2D2D202D2D2D2D2D2D2D2D2D2D2DE2
:101B40002D2D2D0A00000000252D2A2E2A7320207D
:101B500030782530387820253033643A0000000092
:101B6000252D2A2E2A7320203078253038782030F1
:101B70000A0000002DE9FE43054624A72946384601
:101B800001F018FF81463A46494622A003F0B4FB13
:101B9000484601F033FF28A003F0AEFB2E682FE08B
:101BA000A6F10C0404F1140003F029FCB8B904F107
:101BB000140003F02CFC8046208C618C2346082204
:101BC000CDE901080091494622A003F095FB04F1FC
:101BD000140005F0EDFD25A003F08EFB0FE004F1ED
:101BE000140003F014FC8046208C618C23460822EC
:101BF000CDE90108009149461DA003F07DFB366840
:101C0000AE42CDD10020BDE8FE8300006D61696C5D
:101C1000626F7800252D2A2E7320656E74727920EC
:101C200073697A652073757370656E642074687269
:101C30006561640A00000000202D2D2D2D20202D2F
:101C40002D2D2D202D2D2D2D2D2D2D2D2D2D2D2DD1
:101C50002D2D0A00252D2A2E2A73202530346420AC
:101C600020253034642025643A0000000A0000007A
:101C7000252D2A2E2A732025303464202025303447
:101C8000642025640A0000002DE9FE43054613A7E1
:101C90002946384601F08EFE80463A46414611A05C
:101CA00003F02AFB404601F0A9FE1AA003F024FB32
:101CB0002E680EE0A6F10C04D4E90702A1692346C0
:101CC000CDE900120290082241461DA003F014FB4A
:101CD0003668AE42EED10020BDE8FE836D656D68CA
:101CE00065617000252D2A2E732020706F6F6C2087
:101CF00073697A6520206D6178207573656420733F
:101D0000697A6520617661696C61626C65207369CE
:101D10007A650A00202D2D2D2D2D2D2D2D2D2D20D8
:101D20002D2D2D2D2D2D2D2D2D2D2D2D2D202D2DF0
:101D30002D2D2D2D2D2D2D2D2D2D2D2D0A0000007D
:101D4000252D2A2E2A7320252D3031306420252D73
:101D50003031336420252D3035640A002DE9FF41F0
:101D6000054621A72946384601F024FE80463A461A
:101D700041461FA003F0C0FA404601F03FFE26A0F6
:101D800003F0BAFA2E6828E0A6F10C04606BA8B143
:101D9000D4E90931E269606BCDE90023CDE9021095
:101DA00023460822414625A003F0A6FA04F12C00A0
:101DB00005F0FEFC20A003F09FFA0DE0D4E9093005
:101DC000E269616BCDE90023CDE9020123460822D7
:101DD000414621A003F090FA3668AE42D4D10020EB
:101DE00004B0BDE8F08100006D656D706F6F6C0030
:101DF000252D2A2E7320626C6F636B20746F7461C3
:101E00006C20667265652073757370656E642074EE
:101E100068726561640A0000202D2D2D2D20202D73
:101E20002D2D2D20202D2D2D2D202D2D2D2D2D2D09
:101E30002D2D2D2D2D2D2D2D0A000000252D2A2E86
:101E40002A73202530346420202530346420202556
:101E50003034642025643A00252D2A2E2A7320254B
:101E60003034642020253034642020253034642030
:101E700025640A002DE9FC47054622A72946384675
:101E800001F098FD81463A46494621A003F034FA14
:101E9000484601F0B3FD25A003F02EFA2E682BE092
:101EA000A6F10C0404F1140003F0A9FAA8B904F196
:101EB000140003F0ACFA8046A08C23460822494661
:101EC000CDE900081FA003F017FA04F1140005F093
:101ED0006FFC21A003F010FA0DE004F1140003F0F0
:101EE00096FA8046A08C234608224946CDE9000890
:101EF0001AA003F001FA3668AE42D1D10020BDE845
:101F0000FC8700006D7367717565756500000000E2
:101F1000252D2A2E7320656E747279207375737067
:101F2000656E64207468726561640A00202D2D2D31
:101F30002D20202D2D2D2D2D2D2D2D2D2D2D2D2DEB
:101F40002D0A0000252D2A2E2A73202530346420E6
:101F50002025643A000000000A000000252D2A2EEA
:101F60002A732025303464202025640A00000000F4
:101F70002DE9FF47054616A72946384601F01AFD08
:101F800081463A46494614A003F0B6F9484601F0A6
:101F900035FD1AA003F0B0F92E6813E0A6F10C0489
:101FA00004F1140003F033FA8046E07F0822216A2E
:101FB0002346CDE90208CDE90021494617A003F0E8
:101FC0009BF93668AE42E9D1002004B0BDE8F08745
:101FD0006D75746578000000252D2A2E7320202051
:101FE0006F776E65722020686F6C642073757370F4
:101FF000656E64207468726561640A00202D2D2D61
:102000002D2D2D2D2D202D2D2D2D202D2D2D2D2D1A
:102010002D2D2D2D2D2D2D2D2D0A0000252D2A2E77
:102020002A7320252D382E2A73202530346420254C
:10203000640A00002DE9FC47054622A729463846D8
:1020400001F0B8FC81463A46494621A003F054F914
:10205000484601F0D3FC25A003F04EF92E682BE092
:10206000A6F10C0404F1140003F0C9F9A8B904F1B5
:10207000140003F0CCF98046A08B23460822494681
:10208000CDE900081FA003F037F904F1140005F0B2
:102090008FFB15A003F030F90DE004F1140003F0FC
:1020A000B6F98046A08B234608224946CDE90008B0
:1020B00018A003F021F93668AE42D1D10020BDE866
:1020C000FC87000073656D6170686F7265000000C9
:1020D000252D2A2E73207620202073757370656E4F
:1020E00064207468726561640A000000202D2D2D43
:1020F000202D2D2D2D2D2D2D2D2D2D2D2D2D2D0A40
:1021000000000000252D2A2E2A732025303364205C
:1021100025643A00252D2A2E2A7320253033642089
:1021200025640A002DE9FC5F05460FF2BC0929462B
:10213000484601F03FFC83464A4659462C4803F086
:10214000DBF8584601F05AFC2AA003F0D5F8D5F880
:10215000008043E0A8F10C0494F8350023460822DF
:102160005946009033A003F0C7F894F8340000F00B
:102170000F06012E03D132A003F0BEF80FE0022EAD
:1021800003D132A003F0B8F809E01EB932A003F081
:10219000B3F804E0042E02D132A003F0ADF8A76A30
:1021A00000E07F1C38782328FBD0D4E90A10791A84
:1021B000401A64214843E16AB0FBF1FA216BA06C3C
:1021C000CDE90001E369A06AC01AE36AC1181A46A2
:1021D000534627A003F090F8D8F80080A845B9D15D
:1021E0000020BDE8FC9F0000746872656164000017
:1021F00048860008202D2D2D20202D2D2D2D2D2D14
:102200002D202D2D2D2D2D2D2D2D2D2D202D2D2D18
:102210002D2D2D2D2D2D2D20202D2D2D2D2D2D2015
:10222000202D2D2D2D2D2D2D2D2D2D202D2D2D0A1B
:1022300000000000252D2A2E2A732025336420005B
:10224000207265616479202000000000207375739E
:1022500070656E640000000020696E6974202020A3
:102260000000000020636C6F7365202000000000F8
:102270002030782530387820307825303878202084
:102280002020253032642525202020307825303844
:102290007820253033640A002DE9FC4705461BA74A
:1022A0002946384601F086FB80463A46414619A049
:1022B00003F022F8404601F0A1FB20A003F01CF837
:1022C0002E6817E0A6F10C04D4E909012346082280
:1022D000CDE90001414622A003F00EF8607A00F03B
:1022E000010018B124A003F007F802E025A003F0D4
:1022F00003F83668AE42E5D104F06CFD81464946EC
:1023000024A002F0F9FF0020BDE8FC8774696D6528
:1023100072000000252D2A2E732020706572696FCF
:1023200064696320202074696D656F7574202020B6
:1023300020202020666C61670A000000202D2D2DD2
:102340002D2D2D2D2D2D2D202D2D2D2D2D2D2D2DCA
:102350002D2D202D2D2D2D2D2D2D2D2D2D2D0A000A
:10236000252D2A2E2A732030782530387820307891
:1023700025303878200000006163746976617465E7
:10238000640A000064656163746976617465640A57
:102390000000000063757272656E74207469636B6F
:1023A0003A3078253038780A000000002DE9F043F3
:1023B00089B005468946174600242DB94FF48A7224
:1023C0001C491DA001F09CFC2FB940F215121949BF
:1023D0001AA001F095FC00E0641C285D202804D0C0
:1023E000285D092801D04C45F6D324B94FF0FF30C1
:1023F00009B0BDE8F0832146284601F0F3F906460E
:1024000016B94FF0FF30F3E7202101A8FEF7F7F8E7
:1024100001AA4946284601F055FA8046B8F1000F56
:1024200002D14FF0FF30E3E701A94046B0473860E2
:102430000020DDE734840008636D64007265747009
:102440000000000070B5044624B94B22144915A0C1
:1024500001F056FCA06A0078232809D1A16AE0693E
:10246000884205D9D4E90A010844E16988420CD2BE
:10247000214611A002F040FF01F087F8FDF7E6FECB
:10248000054600BF002DFDD108E0A06A2030E169BB
:10249000814203D821460FA002F02EFF70BD00003C
:1024A000D180000874687265616420213D20525417
:1024B0005F4E554C4C0000007468726561643A25AB
:1024C0007320737461636B206F766572666C6F77CF
:1024D0000A0000007761726E696E673A20257320EA
:1024E000737461636B20697320636C6F7365207410
:1024F0006F20656E64206F6620737461636B20616A
:102500006464726573732E0A000000002DE9FC5F9D
:1025100004468B4616461F46DDE90C9ADDE90E5847
:1025200004F114004060006000BF26626762C4F8D6
:102530002890C4F82CA02321D4E90A0203F041F921
:10254000D4E90A3C63441A1F174BD4E9080102F08E
:10255000FBFDE061202D04DB9022144914A001F062
:10256000CFFB3034A57165710020A060C4F81480E1
:10257000C4F8188020602071A064E064303C0090B2
:102580002346144A2146019004F14C0004F054FD06
:1025900000BF1148006818B120460F4909688847F4
:1025A00000BF0020BDE8FC9FA96800081F8100084B
:1025B0007072696F72697479203C2052545F54487C
:1025C000524541445F5052494F524954595F4D4121
:1025D00058000000BD6C0008600100202DE9F047A4
:1025E00004460E4617469846DDF8209084F8099078
:1025F000607A20F001006072E66127620020A0622C
:10260000C4F82480002506E004F1140101EBC500A4
:1026100002F0ACFE6D1C012DF6DBBDE8F08710B5B5
:102620000246002001460EE002F1140303EBC10054
:10263000D0E900436360D0E900342360406000606B
:1026400000BF481C01460129EEDB10BD2DE9F04713
:1026500004460F46904604B12FB94FF4DE7240494C
:1026600040A001F04DFBFDF7F1FD8246A06CC0F3E8
:102670008F2000282DD10026E56C2DB94FF4E37290
:10268000374943A001F03CFB2868012813D0012002
:102690002860206C006928B940F2CB12304941A073
:1026A00001F02EFB206C012342463946D0F810C0C1
:1026B0002046E04701E06FF006065046FDF7CAFDF0
:1026C00016B94046BDE8F087304603F027FF0020EA
:1026D000F8E7E56C0026204602F008F981462DB99E
:1026E00040F2DB121E4939A001F00AFBC84501D2B5
:1026F000464600E04E46E8888119A06CC0F38F2062
:10270000814207D2EA88286881183246384602F0AA
:10271000F9FF1CE0A06CC0F38F20EB88C21A286878
:10272000C118384602F0EEFFEB8803EB060CA36CF1
:10273000C3F38F23ACEB0302A36CC3F38F233B449F
:10274000B5F806C0A3EB0C00296802F0DBFF3146A8
:10275000204602F0D1F85046FDF77CFD3046B1E747
:102760004D8300082873657269616C20213D2052F9
:10277000545F4E554C4C29202626202864617461F4
:1027800020213D2052545F4E554C4C290000000042
:1027900072785F646D6120213D2052545F4E554C2C
:1027A0004C00000073657269616C2D3E6F70732D73
:1027B0003E646D615F7472616E736D697420213D5A
:1027C0002052545F4E554C4C0000000072785F66FA
:1027D00069666F20213D2052545F4E554C4C0000DD
:1027E0002DE9F047044688461646256D4FF0FF3325
:1027F00032464146281D01F083FD0746CFB9FDF75B
:1028000025FD8146286801280DD001202860484612
:10281000FDF720FD206C022332464146D0F810C05F
:102820002046E04702E04846FDF714FD3046BDE88B
:10283000F087384603F072FE0020F8E770B50546D1
:10284000EC6C2CB940F24F120F4910A001F058FA6D
:10285000A088E188884207D1A06808B9002070BD2F
:10286000A86CC0F38F20FAE7A088E188884203DDD6
:10287000A088E188401AF2E7E088A188411AA86C94
:10288000C0F38F20401AEAE7F682000872785F668C
:1028900069666F20213D2052545F4E554C4C00001C
:1028A0002DE9F04706460F4615462EB940F20712AD
:1028B0001E491FA001F024FAA846F46C2CB940F27E
:1028C0000B121A491FA001F01BFA28E0FDF7BEFC0D
:1028D0008246E088A188884205D1A06818B9504690
:1028E000FDF7B8FC1DE0E188206810F80190E08851
:1028F000401CE080E188B06CC0F38F20814201DB96
:102900000020E080A068012801D10020A06050468E
:10291000FDF7A0FC87F800907F1C6D1E00BF002D06
:10292000D4D100BFA8EB0500BDE8F087D88200082D
:1029300073657269616C20213D2052545F4E554C85
:102940004C00000072785F6669666F20213D20525E
:10295000545F4E554C4C00002DE9F04105460E46A3
:1029600014462DB940F237121149124801F0C8F946
:10297000A0462F6D2FB940F23B120D490EA001F079
:10298000BFF90FE03178286C826828469047401CD8
:1029900028B94FF0FF31384601F084FA02E0761C86
:1029A000641E00BF002CEDD1A8EB0400BDE8F0814F
:1029B000E7820008102A0008747820213D20525434
:1029C0005F4E554C4C0000002DE9F04106460F4685
:1029D000144626B9D4220D490DA001F091F9A04664
:1029E0000DE0306CC168304688470546681C00B968
:1029F00007E03D707F1C641E0A2D00D101E0002C11
:102A0000EFD100BFA8EB0400BDE8F081B882000858
:102A100073657269616C20213D2052545F4E554CA4
:102A20004C0000002DE9F04104460E46154624B93D
:102A3000E8220F490F4801F063F92F4612E0307881
:102A40000A2808D1207E00F0400020B1206C0D2122
:102A50008268204690473178206C826820469047F3
:102A6000761C6D1E002DEAD1781BBDE8F0810000B8
:102A7000C8820008102A000810B520A002F03CFC13
:102A80002148017821A002F037FC1F48007800F0AF
:102A9000010010B123A002F02FFC1B48007800F0C9
:102AA000020010B122A002F027FC1748007800F0C5
:102AB000040010B121A002F01FFC1348007800F0C0
:102AC000080010B121A002F017FC0F48007800F0B8
:102AD000100010B120A002F00FFC0B48007800F0AD
:102AE000800030B108480F3001681DA002F004FCDE
:102AF00002E01FA002F000FC10BD00006275732010
:102B00006661756C743A0A0029ED00E05343425F38
:102B1000434653525F424653523A3078253032583A
:102B20002000000049425553455252200000000049
:102B3000505245434953455252200000494D50528E
:102B4000454349534552522000000000554E53540E
:102B50004B4552522000000053544B455252200026
:102B60005343422D3E424641523A253038580A00DE
:102B70000A00000070B504460D4600F09DFC0020E0
:102B800070BD70B504460D4600F0FFFC002070BD1E
:102B9000024600207047000010B51448006890F805
:102BA0002100C0F3400020B90020114908700846F8
:102BB00010BD1048006838B180220E4801680C48EA
:102BC000FDF744FD0A48F3E700F07AFE20B10AA1C0
:102BD0000748FDF7E1FB03E009A10548FDF7DCFB31
:102BE00009A10348FDF766FC0148E1E784010020E4
:102BF00020050020880100206D736820000000007F
:102C000066696E73682000003E00000008B50E483B
:102C1000006820B98E220D490DA001F071F805E081
:102C20004FF0FF310848006803F0B4F8064909681E
:102C300001236A46D1F80802991E01F049FD0128D6
:102C4000EED19DF8000008BD840100206E840008CC
:102C50007368656C6C20213D2052545F4E554C4C7E
:102C60000000000070B504460D460748006820B912
:102C70009922064906A001F043F80348006803F0D2
:102C800041F8002070BD0000840100207C84000811
:102C90007368656C6C20213D2052545F4E554C4C3E
:102CA0000000000070B5054600242548006820B9E2
:102CB000AC22244924A001F023F8284601F026FC88
:102CC000044624B9294625A002F016FB70BD1C4815
:102CD0000068D0F80802A04200D1F7E740F24311A3
:102CE000204601F051FC48BB15480068D0F80802A6
:102CF00060B113490968D1F8080201F0B1FB10492D
:102D00000968D1F80802002101F056FD50210C4855
:102D1000006800F5DB70FDF750FC002008490968E9
:102D200081F806020649096881F80702044800682C
:102D3000C0F808421149204601F03EFD00BFC5E73A
:102D400084010020898400087368656C6C20213D33
:102D50002052545F4E554C4C0000000066696E7363
:102D6000683A2063616E206E6F742066696E64201D
:102D70006465766963653A2025730A00652C00084E
:102D800010B504460948006820B98322084909A003
:102D900000F0B6FF0548006890F8210064F3410098
:102DA0000249096881F8210010BD0000840100205B
:102DB000588400087368656C6C20213D2052545F74
:102DC0004E554C4C00000000024A1060024A11604F
:102DD000704700008C010020900100207CB5002588
:102DE00017491848FFF7F0FF4FF40371012000F076
:102DF000C1FF154908600846006820B913A002F019
:102E00007BFA681E7CBD0A2014214FF480530022F7
:102E1000CDE90010134914A003F01DFD0446002362
:102E20001A4613A10848006802F048FF0120FFF786
:102E3000A7FF1CB115B9204603F090FE0020E1E782
:102E4000648D0008088C0008840100206E6F206DDE
:102E5000656D6F727920666F72207368656C6C0A9D
:102E600000000000792E0008747368656C6C000027
:102E70007368727800000000FE48006890F8210036
:102E800020F00100401CFB49096881F82100F94845
:102E90000068D0F8080238B901F0C0F8054615B14D
:102EA0002846FFF7FFFE00BFFFF776FE054602F05B
:102EB00023FA5CE2FFF7AAFE04461B2C05D1012091
:102EC000EC49096881F8200051E2EA48006890F86E
:102ED000200001280DD15B2C05D10220E5490968AD
:102EE00081F8200043E20020E249096881F82000CF
:102EF000BEE0E048006890F820000228F8D10020E9
:102F0000DC49096881F82000412C36D1D948006895
:102F1000408C002807DDD7480068408C401ED5490A
:102F20000968488404E00020D249096848841EE208
:102F3000D0480068408C00EB8002CE480068263004
:102F400000EB02115022CB48006800F5DB70FDF762
:102F5000BDFAC848006800F5DB70FDF741FAC0B261
:102F6000C449096881F80602C249096881F8070264
:102F7000C048006804F098FBF9E1422C42D1BD48FA
:102F80000068418CBB480068808C401E814207DA93
:102F9000B8480068408C401CB649096848840CE079
:102FA000B4480068808C38B1B2480068808C401EFC
:102FB000B0490968488400E0D9E1AE480068408C17
:102FC00000EB8002AB480068263000EB0211502273
:102FD000A848006800F5DB70FDF778FAA54800689E
:102FE00000F5DB70FDF7FCF9C0B2A249096881F871
:102FF0000602A049096881F807029E48006804F0AB
:1030000053FBB4E1442C11D19A48006890F80702B0
:1030100058B199A002F070F99648006890F807023C
:10302000401E9449096881F80702A0E1432C1FD192
:103030009048006890F807028E49096891F80612D6
:10304000884214DA8B48006890F8072289480068A3
:1030500000F5DB70815C89A002F04EF985480068BC
:1030600090F80702401C8349096881F807027EE155
:103070000CB1FF2C00D17AE1092C21D1002503E00D
:103080007DA002F039F96D1C7A48006890F80702BB
:10309000A842F5DC7748006800F5DB7004F0E8FA38
:1030A0007448006800F5DB70FDF79AF9C0B2714909
:1030B000096881F806026F49096881F8070256E13C
:1030C0007F2C01D0082C74D16A48006890F8070260
:1030D00000B94CE16748006890F80602401E654957
:1030E000096881F806026348006890F80702401EEC
:1030F0006049096881F807025E48006890F8060296
:103100005C49096891F80712884243DD594B1B68F6
:1031100093F80632574E366896F807629A1B554B5D
:103120001B6893F807325B1C524E366806F5DB7657
:103130009919504B1B6893F807624E4B1B6803F5B7
:10314000DB73F01802F01CFB00224A48006890F87C
:1031500006124848006800F5DB7042544548006894
:1031600090F807224348006800F5DB70111844A06E
:1031700002F0C2F83F48006890F8075203E03EA012
:1031800002F0BAF86D1C3B48006890F80602A842AD
:10319000F5DA0CE03CA002F0AFF8002235480068F8
:1031A00090F806123348006800F5DB704254DEE008
:1031B000FFE70D2C01D00A2C31D12E48006804F015
:1031C0008BFA00F07DFB012813D12A48006890F8A3
:1031D000210000F0010010B12CA002F08DF825486C
:1031E000006890F806122348006800F5DB7000F0D4
:1031F000C3FAFFF7D1FC054602F07EF850211D48C6
:10320000006800F5DB70FDF7D8F90020194909685E
:1032100081F806021749096881F80702A7E01548F6
:10322000006890F80602502804DB00201149096864
:1032300081F806020F48006890F807020D490968F6
:1032400091F8061288425ADA0A4B1B6893F8063244
:10325000084E366896F807629A1B064B1B6893F86F
:103260000762044B1B6803F5DB73F118014B1B6805
:103270000EE000008401002008000000256300002B
:103280000825732020080000082008000A0000001C
:1032900093F807325B1C364E366806F5DB769819D4
:1032A00002F06EFA3248006890F807123048006861
:1032B00000F5DB7044542E48006890F8210000F0BF
:1032C000010058B12A48006890F807222848006891
:1032D00000F5DB70111827A002F00EF824480068F2
:1032E00090F8075204E0AFF2700002F005F86D1C90
:1032F0001F48006890F80602A842F4DC14E01C485D
:10330000006890F806121A48006800F5DB70445413
:103310001748006890F8210000F0010020B1214614
:10332000AFF2A80001F0E8FF00241148006890F80F
:103330000602401C0E49096881F806020C48006824
:1033400090F80702401C0A49096881F807020848FA
:10335000006890F80602502808DB0020044909683C
:1033600081F806020249096881F8070200BFA1E559
:10337000840100202573000010B51448006800F097
:10338000020010B112A001F0B7FF1048006800F071
:10339000804088B10D48C01E007808B1FFF76CFB73
:1033A0000A48001F007808B100F022F90748801E83
:1033B000008808B104F05CFB0448006800F000409D
:1033C00010B109A001F098FF10BD00002CED00E045
:1033D0006661696C656420766563746F72206665EA
:1033E0007463680A00000000646562756720657692
:1033F000656E740A0000000010B502A001F07CFFA9
:10340000002010BD48656C6C6F2052542D546872BA
:10341000656164210A00000010B50DA001F06CFF89
:10342000104804680DE002220FA12068FCF7F7FFA6
:1034300000B905E00DA0D4E9001201F05DFF00BF66
:103440000C340E4800688442EDD3002010BD00000B
:103450002D2D46756E6374696F6E204C6973743AD6
:103460000A0000008C0100205F5F0000252D31362E
:1034700073202D2D2025730A0000000090010020EC
:1034800010B5082002F0B6FA0446201DFEF786FAB1
:1034900010BD10B5032002F0ADFA0446201DFEF762
:1034A000EBFA10BD10B5042002F0A4FA0446201D6A
:1034B000FEF760FB10BD000010B50848016808A0C9
:1034C00001F01AFF0B4801680BA001F015FF0F482F
:1034D00001680FA001F010FF10BD00007C0000206B
:1034E000746F74616C206D656D6F72793A2025641C
:1034F0000A0000008000002075736564206D656D12
:103500006F7279203A2025640A00000084000020B0
:103510006D6178696D756D20616C6C6F6361746548
:1035200064206D656D6F72793A2025640A00000091
:1035300010B5062002F05EFA0446201DFEF7A4FB3B
:1035400010BD10B5072002F055FA0446201DFEF705
:1035500005FC10BD10B5052002F04CFA0446201DF4
:10356000FEF788FC10BD10B5022002F043FA0446B5
:10357000201DFEF7FDFC10BD10B5012002F03AFA47
:103580000446201DFEF756FD10BD10B5002002F0C8
:1035900031FA0446201DFEF7C5FD10BD10B5092007
:1035A00002F028FA0446201DFEF776FE10BD00004A
:1035B00008B508490968C908074AB1FBF2F1414357
:1035C000009100BF00BF00994A1E00920029F9D166
:1035D00008BD00004800002040420F0000BFFEE789
:1035E00010B5044600F00CFDFFF7F8FF10BD000019
:1035F00010B51CA001F080FE1F4801781FA001F04B
:103600007BFE1D48007800F0010010B121A001F000
:1036100073FE1948007800F0020010B120A001F0FC
:103620006BFE1548007800F0080010B11FA001F0F3
:1036300063FE1148007800F0100010B11EA001F0E8
:103640005BFE0D48007800F0800030B10A480C3075
:1036500001681CA001F050FE02E01EA001F04CFE2B
:1036600010BD00006D656D206D616E61676520663F
:1036700061756C743A0A000028ED00E05343425F24
:10368000434653525F4D4653523A307825303258B4
:10369000200000004941434356494F4C20000000A0
:1036A0004441434356494F4C200000004D554E5372
:1036B000544B4552522000004D53544B455252201A
:1036C000000000005343422D3E4D4D41523A2530FB
:1036D00038580A000A0000002DE9F047814600260C
:1036E000002799F8000028B90021084600F0A8F842
:1036F000BDE8F0871B48046827E006221AA120686D
:10370000FCF78DFE00B11FE0206800F10608484676
:10371000FCF766FE8246524641464846FCF77FFE6D
:1037200088B926B947463846FCF75AFE0646414650
:10373000384604F067F90546B54200DA2E464146A0
:103740000BA001F0D9FD00BF0C340A480068844288
:10375000D3D327B132463946484602F068FF00BF4E
:10376000C6E700008C0100205F5F636D645F0000AE
:1037700025730A009001002038B504460D4601E08B
:10378000641C6D1E20782028FAD020780928F7D0F4
:103790000DB9002038BD6A4629462046FEF706FED0
:1037A00008B90098F6E7204600E0401C017820297F
:1037B00002D001780029F8D100210170214603A030
:1037C00001F09AFD4FF0FF30E4E7000025733A2046
:1037D000636F6D6D616E64206E6F7420666F756EC1
:1037E000642E0A002DE9F04106460D4600271048D8
:1037F000046815E006220FA12068FCF710FE00B156
:103800000DE02168881D2A463146FCF708FE28B9DC
:10381000A81D2168085C08B9A76805E000BF0C3442
:10382000064800688442E5D300BF3846BDE8F08111
:103830008C0100205F5F636D645F000090010020D9
:1038400070B505460E460FA001F056FD14480468F9
:103850000EE0062213A12068FCF7E1FD00B106E0AE
:10386000D4E90002811D11A001F046FD00BF0C3417
:10387000114800688442ECD310A001F03DFD002007
:1038800070BD000052542D546872656164207368E5
:10389000656C6C20636F6D6D616E64733A0A000035
:1038A0008C0100205F5F636D645F0000252D313661
:1038B00073202D2025730A00900100200A000000CB
:1038C000012070472DE9F04782460E469046544647
:1038D0000025002755E003E000202070641C6D1CCB
:1038E0002078202802D02078092801D1B542F3D3CE
:1038F000082F12D326A001F0FFFC4FF0000906E0CC
:1039000058F829102AA001F0F7FC09F10109B9457E
:10391000F6D326A001F0F0FC35E0B54200D332E04A
:10392000207822281CD1641C6D1C48F827407F1C7D
:1039300009E020785C2804D16078222801D1641C39
:103940006D1C641C6D1C2078222801D0B542F0D378
:10395000B54200D317E000202070641C6D1C10E0FD
:1039600048F827407F1C01E0641C6D1C207820284B
:1039700004D02078092801D0B542F5D3B54200D350
:1039800001E0B542A7D300BF3846BDE8F08700008C
:10399000546F6F206D616E792061726773202120F2
:1039A0005765206F6E6C79205573653A0A000000E8
:1039B000257320002DE9F04780460E464FF00009A0
:1039C000404602F017FE044601F03EF8376809E071
:1039D000A7F10C09484602F00DFE0546A54200DDA0
:1039E0002C463F68B742F3D101F03EF8082C00DCCA
:1039F00004B908242046BDE8F087000010B504464D
:103A000002E004A001F078FC2000A4F10104F8D148
:103A100010BD00002D00000070B504462648006867
:103A2000844204D29422254925A000F069F92C484B
:103A30000068844204D3952220492AA000F060F94E
:103A4000608820B196221D4931A000F059F91A4929
:103A5000606809684518AC4215D0688898B9204854
:103A6000006885420FD02E480068A84201D12C483A
:103A700004606868606010480068201A0E4A69682F
:103A80001268114488600C49A06809684618A6426B
:103A900011D0708878B922480068A04201D120482E
:103AA00006606068706004480068301A024A616805
:103AB00012681144886070BD700000200B800008FF
:103AC0002872745F75696E74385F74202A296D6579
:103AD0006D203E3D20686561705F7074720000006B
:103AE000740000202872745F75696E74385F7420EA
:103AF0002A296D656D203C202872745F75696E748B
:103B0000385F74202A29686561705F656E64000003
:103B10006D656D2D3E75736564203D3D2030000060
:103B2000780000202DE9F04F85B00D469C46DDE978
:103B30000F740E9B04F04008B8F1000F02D0DFF8BC
:103B4000688101E0DFF86481CDF8008004F010089E
:103B5000B8F1000F01D024F0010404F00108B8F11D
:103B6000000F02D04FF0300801E04FF02008C246AD
:103B7000002604F00208B8F1000F11D0002A02DA82
:103B80002D2652420CE004F00408B8F1000F01D0D9
:103B90002B2605E004F00808B8F1000F00D020261D
:103BA000002142B94FF0300B8846491C0DF1040941
:103BB00009F808B01DE01AE0E146B9F10A0F08D192
:103BC0004FF00A0BB2FBFBFE0BFB1E28B2FBFBF215
:103BD00002E002F00F08120900BFDDF8009019F8AA
:103BE00008B08846491C0DF1040909F808B0002AFC
:103BF000E2D1B94200DD0F46DB1B04F01108B8F139
:103C0000000F10D116B1002B00DD5B1E06E0A842AC
:103C100003D84FF0200880F80080401CB3F1000862
:103C2000A3F10103F3DC26B1A84201D806705B1EA4
:103C3000401C04F01008B8F1000F0AD104E0A842BB
:103C400001D880F800A0401CB3F10008A3F10103E3
:103C5000F5DC06E0A84203D84FF0300880F8008079
:103C6000401CB8467F1E8845F4DC08E0A84205D811
:103C70000DF1040818F8018080F80080401CB1F1B3
:103C80000008A1F10101F1DC06E0A84203D84FF0E1
:103C9000200880F80080401CB3F10008A3F1010364
:103CA000F3DC05B0BDE8F08FFA7F0008E97F00087B
:103CB0001CB514200A214FF400630022CDE9001046
:103CC000074908A002F0C7FD044624B9C6220749E7
:103CD00007A000F015F8204602F040FF1CBD0000D0
:103CE000E13500086D61696E00000000FF7B00088F
:103CF00074696420213D2052545F4E554C4C0000A5
:103D0000F8B504460D461646002000900A480068A3
:103D100058B933462A46214608A001F0EDFA00BF03
:103D20009DF800000028FBD005E0324629462046D9
:103D3000014B1B689847F8BD6400002028257329B3
:103D400020617373657274696F6E206661696C655A
:103D5000642061742066756E6374696F6E3A2573B2
:103D60002C206C696E65206E756D6265723A2564F3
:103D7000200A00002DE9F04104460D4600BFFCF783
:103D800065FA074601F04CFA48B10E490EA001F061
:103D9000B3FA4FF401720B4915A0FFF7B1FF384693
:103DA000FCF758FA00BF04FB05F001F04DFB064696
:103DB0002EB104FB05F20021304601F002FD304631
:103DC000BDE8F0813F80000846756E6374696F6ED0
:103DD0005B25735D207368616C6C206E6F7420626C
:103DE00065207573656420696E204953520A00008E
:103DF0003000000070B5044624B96422104911A0B7
:103E0000FFF77EFF2068012800D170BDFCF71EFA85
:103E1000064601202060201D01F0E1FA58B96068D3
:103E2000A0F11405284602F047FE3046FCF712FACE
:103E300001F06AFE02E03046FCF70CFA00BFE4E74E
:103E40005A820008636F6D706C6574696F6E202113
:103E50003D2052545F4E554C4C00000070B5044656
:103E600024B91522084909A0FFF74AFFFCF7EEF92B
:103E7000054600202060201D4060006000BF2846ED
:103E8000FCF7E8F970BD000034820008636F6D70C4
:103E90006C6574696F6E20213D2052545F4E554C05
:103EA0004C0000002DE9F341054625B924222F4995
:103EB0002FA0FFF725FF002602F04AFE0446FCF77C
:103EC000C5F907462868012846D0281D01F087FA61
:103ED00020B92D2225492CA0FFF712FF019810B917
:103EE0006FF001063BE000202063204602F096FEC2
:103EF000281D04F114014268116042684A60416063
:103F0000086000BF00BFFCF7A1F9804601F088F906
:103F100040B1164928A001F0EFF94022134930A022
:103F2000FFF7EEFE4046FCF795F900BF0198002828
:103F300009DD01AA002104F14C0002F0B7FF04F1F1
:103F40004C0003F0A3F83846FCF784F901F0DCFDDF
:103F5000266BFCF77BF907460020286000BF384637
:103F6000FCF778F93046BDE8FC8100004782000884
:103F7000636F6D706C6574696F6E20213D205254C3
:103F80005F4E554C4C00000072745F6C6973745F37
:103F90006973656D707479282628636F6D706C6520
:103FA00074696F6E2D3E73757370656E6465645FC2
:103FB0006C6973742929000046756E6374696F6EAD
:103FC0005B25735D207368616C6C206E6F7420627A
:103FD00065207573656420696E204953520A00009C
:103FE0003000000010B5044C02E020688047241D1A
:103FF00002488442F9D310BDF48B0008FC8B000802
:1040000010B5044C02E020688047241D0248844219
:10401000F9D310BDFC8B0008048C0008014800682F
:10402000704700006000002070B505460A48066829
:10403000284600F06BFA044664B10748006818B1DE
:104040000548006800F00CFA4321204600F09CFA75
:1040500001480460304670BD600000202DE9F04149
:1040600004460D4616461F4624B91C220E490FA0D1
:10407000FFF746FE27622580668000202081608150
:1040800004F1100001F075F904F1180001F071F964
:10409000E80001F0D9F9E060E06818B96FF00400B9
:1040A000BDE8F0810020FBE76D8200087175657541
:1040B0006520213D2052545F4E554C4C00000000BD
:1040C0002DE9F04104460D46164624B9F82216495A
:1040D00016A0FFF715FEFCF7B9F80746208961899D
:1040E000884206D13846FCF7B5F86FF00300BDE80A
:1040F000F0812089218890FBF1F201FB1200E16838
:1041000051F8300028602089218890FBF1F201FBF2
:104110001200E16801EBC000406830603846FCF7EF
:1041200099F80020E3E70000A58200087175657525
:104130006520213D2052545F4E554C4C000000003C
:104140002DE9FF4704460F46904624B9952252496F
:1041500052A0FFF7D5FD27B996224F4954A0FFF78B
:10416000CFFDB8F1000F04D197224B4955A0FFF7BE
:10417000C7FD002602F0ECFC0546FCF767F8814617
:104180003BE0039810B96FF0010678E000BFFCF740
:104190005DF8824601F044F840B13F494DA001F07E
:1041A000ABF8A7223C4955A0FFF7AAFD5046FCF703
:1041B00051F800BF00202863284602F02FFD05F1CA
:1041C000140104F1180001F0F3F80398002809DD48
:1041D00003AA002105F14C0002F068FE05F14C0035
:1041E00002F054FF4846FCF735F801F08DFC2E6BC9
:1041F000FCF72CF8814606B141E0208961898842AC
:10420000BFD02089218890FBF1F201FB1200E16808
:1042100051F8300038602089218890FBF1F201FBD1
:104220001200E16801EBC0004068C8F80000208976
:10423000401C208160892189401A618888421DDCE8
:1042400004F1100001F0D3F858B92069A0F1140569
:10425000284602F031FC4846FBF7FCFF01F054FC15
:1042600002E04846FBF7F6FF206A18B1032120461A
:10427000226A9047304604B0BDE8F08700BF484648
:10428000FBF7E8FF2EB9206A18B101212046226A07
:1042900090473046EFE7000093820008717565751E
:1042A0006520213D2052545F4E554C4C00000000CB
:1042B000646174615F70747220213D2052545F4EBE
:1042C000554C4C0073697A6520213D2052545F4E55
:1042D000554C4C0046756E6374696F6E5B25735D5B
:1042E000207368616C6C206E6F742062652075733A
:1042F000656420696E204953520A000030000000B6
:104300002DE9FF4704460F46904624B93C22434915
:1043100043A0FFF7F5FC002602F01AFC0546FBF768
:1043200095FF81463BE0039810B96FF0010668E005
:1043300000BFFBF78BFF824600F072FF40B13749A8
:104340003CA000F0D9FF4D22344944A0FFF7D8FC2F
:104350005046FBF77FFF00BF00202863284602F08D
:104360005DFC05F1140104F1100001F021F803983F
:10437000002809DD03AA002105F14C0002F096FD9A
:1043800005F14C0002F082FE4846FBF763FF01F0A6
:10439000BBFB2E6BFBF75AFF814606B131E060890B
:1043A0002189401A21888842BDD06089218890FBEC
:1043B000F1F201FB1200E16841F830706089218858
:1043C00090FBF1F201FB1200E16801EBC000C0F8C4
:1043D00004806089401C608104F1180001F007F836
:1043E00070B9A069A0F11405284602F065FB4846A3
:1043F000FBF730FF01F088FB304604B0BDE8F087E2
:1044000000BF4846FBF726FF2EB9206A18B10221EB
:104410002046226A90473046EFE70000808200087D
:10442000717565756520213D2052545F4E554C4C89
:104430000000000046756E6374696F6E5B25735DE6
:10444000207368616C6C206E6F74206265207573D8
:10445000656420696E204953520A00003000000054
:1044600070B5044600252CB940F23512134914A04A
:10447000FFF746FC204601F0D1FA082805D04FF49A
:104480009B720E4912A0FFF73BFCA07E10B94FF0C3
:10449000FF3070BDA07E401EA076A07E08B1002037
:1044A000F7E7E06A18B12046E16A884705460DB192
:1044B000A81D08B9002020832846EAE7677C000889
:1044C00064657620213D2052545F4E554C4C0000CF
:1044D00072745F6F626A6563745F6765745F747935
:1044E000706528266465762D3E706172656E74294C
:1044F000203D3D2052545F4F626A6563745F436C98
:104500006173735F44657669636500002DE9F0416E
:10451000064602F01DFB08B100F096FA082001F0F3
:1045200069FA044624B97C22104911A0FFF7E8FB80
:10453000656810E0A5F10C0708223146384602F004
:1045400062F838B902F004FB08B100F08DFA384681
:10455000BDE8F0812D68201D8542EBD102F0F8FA0C
:1045600008B100F081FA0020F2E70000287C000882
:10457000696E666F726D6174696F6E20213D2052A5
:10458000545F4E554C4C000070B504460E46002555
:1045900024B9F422274928A0FFF7B2FB204601F0F6
:1045A0003DFA082804D0F522224927A0FFF7A8FBEE
:1045B000A07D00F0100088B9606A58B12046616A99
:1045C0008847054635B12A4621462EA000F094FEC4
:1045D000284670BDE08A40F01000E082A07D00F027
:1045E000080030B1207E00F0080010B16FF0060026
:1045F000EFE7A06A28B131462046A26A90470546F7
:1046000003E040F60F70304020830DB1A81D70B953
:10461000208B40F008002083A07E401CA076A07E66
:1046200028B940F22312034924A0FFF769FB28466A
:10463000CFE70000587C000864657620213D2052B9
:10464000545F4E554C4C000072745F6F626A656334
:10465000745F6765745F7479706528266465762D6C
:104660003E706172656E7429203D3D2052545F4F4B
:10467000626A6563745F436C6173735F44657669F6
:1046800063650000546F20696E697469616C697AB2
:1046900065206465766963653A2573206661696C97
:1046A00065642E20546865206572726F7220636F96
:1046B00064652069732025640A0000006465762D16
:1046C0003E7265665F636F756E7420213D20300019
:1046D0002DE9F04104460D4616461F462CB940F21E
:1046E0005F12144914A0FFF70BFB204601F096F966
:1046F000082805D04FF4B0720E4913A0FFF700FB55
:10470000A07E30B94FF0FF3001F008FF0020BDE877
:10471000F081206B38B13B46324629462046D4F81A
:1047200030C0E047F3E76FF0050001F0F7FE00202E
:10473000EDE70000777C000864657620213D20527B
:10474000545F4E554C4C000072745F6F626A656333
:10475000745F6765745F7479706528266465762D6B
:104760003E706172656E7429203D3D2052545F4F4A
:10477000626A6563745F436C6173735F44657669F5
:104780006365000070B504460D46164614B94FF037
:10479000FF3070BD2846FFF7B9FE10B14FF0FF3073
:1047A000F7E72A460821204601F052F9E682002068
:1047B000A076208300BFECE770B504460D462CB907
:1047C00040F2C112084909A0FFF79AFA204601F009
:1047D00025F9082805D04FF4E172034907A0FFF737
:1047E0008FFAE561002070BDA87C00086465762022
:1047F000213D2052545F4E554C4C000072745F6F47
:10480000626A6563745F6765745F74797065282692
:104810006465762D3E706172656E7429203D3D2081
:1048200052545F4F626A6563745F436C6173735F78
:1048300044657669636500002DE9F04104460D4644
:1048400016461F462CB94FF4C372144914A0FFF743
:1048500057FA204601F0E2F8082805D040F2871206
:104860000E4913A0FFF74CFAA07E30B94FF0FF308D
:1048700001F054FE0020BDE8F081606B38B13B468A
:10488000324629462046D4F834C0E047F3E76FF0BB
:10489000050001F043FE0020EDE70000867C0008E3
:1048A00064657620213D2052545F4E554C4C0000EB
:1048B00072745F6F626A6563745F6765745F747951
:1048C000706528266465762D3E706172656E742968
:1048D000203D3D2052545F4F626A6563745F436CB4
:1048E0006173735F446576696365000010B50446C3
:1048F0002046FDF7A3FF10BD70B506460D46F46CCB
:104900002CB94FF4BC72134913A0FFF7F9F93046E4
:10491000FFF7ECFFA84205D240F279120D4913A02F
:10492000FFF7EEF9A06810B10DB10020A060E0889B
:104930002844E080E188B06CC0F38F20814208DB1E
:10494000E188B06CC0F38F2091FBF0F200FB1210F5
:10495000E08070BD1383000872785F6669666F201F
:10496000213D2052545F4E554C4C00006C656E202A
:104970003C3D2072745F646D615F63616C635F7264
:1049800065637665645F6C656E2873657269616CDA
:104990002900000070B505460E46EC6C2CB94FF4AA
:1049A000C772234923A0FFF7ABF9E088A1888842AA
:1049B00018DCA0883044A080A188A86CC0F38F20A8
:1049C000814227DBA188A86CC0F38F2091FBF0F215
:1049D00000FB1210A080A088E18888421ADB012029
:1049E000A06017E0A0883044A080A088E1888842B9
:1049F00010DBA188A86CC0F38F20814208DBA1885E
:104A0000A86CC0F38F2091FBF0F200FB1210A08085
:104A10000120A060A068012801D1A088E080E18881
:104A2000A86CC0F38F20814201DB0020E08070BDC4
:104A30003083000872785F6669666F20213D2052DE
:104A4000545F4E554C4C000010B5FBF7FFFB04467D
:104A500004480088401C00B2024908802046FBF749
:104A6000F9FB10BD3C01002010B5FBF7EFFB04463D
:104A70000B480088401E00B2094908800846B0F97A
:104A80000000002807DC002008802046FBF7E2FB3E
:104A900001F03AF802E02046FBF7DCFB10BD000015
:104AA0003C01002070B5054600BFFBF7CFFB064672
:104AB00000F0B6FB48B1414941A000F01DFC40F2B6
:104AC0001B223E4948A0FFF71BF93046FBF7C2FB0B
:104AD00000BF05B970BD05F0030028B140F21F22E8
:104AE000364942A0FFF70CF94D480068854203D3D0
:104AF0004C480068854205D34FF408722F494A4854
:104B0000FFF7FEF800BF4948006818B1284647493A
:104B10000968884700BF42480068854203D341487E
:104B20000068854202D300BF00BFD3E7A5F10C04A3
:104B300000BF00BF4FF0FF313D4801F02BF9608806
:104B400018B12088B0F5F55F08D03AA000F0D4FB8A
:104B50002388628821463EA000F0CEFB608828B9F9
:104B600040F23F22154946A0FFF7CAF82088B0F569
:104B7000F55F05D04FF41072104944A0FFF7C0F85C
:104B8000002060804FF4F550208047480068844240
:104B900001D245480460224960680968611A401AD8
:104BA00042490968081A414908602046FEF734FF67
:104BB0001F4801F0A7F800BF8CE7000049800008FB
:104BC00046756E6374696F6E5B25735D20736861F3
:104BD0006C6C206E6F74206265207573656420694B
:104BE0006E204953520A0000300000002828287225
:104BF000745F75696E7433325F7429726D656D29E7
:104C00002026202852545F414C49474E5F53495A51
:104C100045202D20312929203D3D20300000000075
:104C20007000002074000020608500086C000020E7
:104C300000040020746F2066726565206120626147
:104C400064206461746120626C6F636B3A0A0000D7
:104C50006D656D3A203078253038782C2075736575
:104C60006420666C61673A2025642C206D61676959
:104C70006320636F64653A203078253034780A0009
:104C80006D656D2D3E757365640000006D656D2D5D
:104C90003E6D61676963203D3D20484541505F4D51
:104CA00041474943000000007800002080000020B8
:104CB00010B5FBF7F9FEFCF7BDFC0549054801F00E
:104CC000D1FCFFF78FF904A0FFF7AEF910BD00008B
:104CD00000C00020080C00207561727431000000D3
:104CE0007047000070B505462C1D3048006838B18B
:104CF00028462E4909688847064606B970BD00BF98
:104D00002BA0E16B00F0F8FA2DA0216A00F0F4FA74
:104D10002FA0616A00F0F0FA31A0A16A00F0ECFA6D
:104D200033A0E16A00F0E8FA35A0216800F0E4FA67
:104D300037A0616800F0E0FA39A0A16800F0DCFA61
:104D40003BA0E16800F0D8FA3DA0216900F0D4FA58
:104D50003FA0616900F0D0FA41A0A16900F0CCFA4F
:104D600043A0E16900F0C8FA45A0216B00F0C4FA45
:104D700047A0616B00F0C0FA49A0A16B00F0BCFA3B
:104D8000287800F0040048B101F0E2FE0646314602
:104D900047A000F0B1FAFEF7F8FB02E04CA000F0EB
:104DA000ABFAFEF7E9FA00BFFEE700008001002041
:104DB0007073723A203078253038780A000000008D
:104DC0007230303A203078253038780A0000000000
:104DD0007230313A203078253038780A00000000EF
:104DE0007230323A203078253038780A00000000DE
:104DF0007230333A203078253038780A00000000CD
:104E00007230343A203078253038780A00000000BB
:104E10007230353A203078253038780A00000000AA
:104E20007230363A203078253038780A0000000099
:104E30007230373A203078253038780A0000000088
:104E40007230383A203078253038780A0000000077
:104E50007230393A203078253038780A0000000066
:104E60007231303A203078253038780A000000005E
:104E70007231313A203078253038780A000000004D
:104E80007231323A203078253038780A000000003C
:104E9000206C723A203078253038780A0000000003
:104EA0002070633A203078253038780A00000000FE
:104EB00068617264206661756C74206F6E2074681E
:104EC000726561643A2025730D0A0D0A0000000026
:104ED00068617264206661756C74206F6E20686111
:104EE0006E646C65720D0A0D0A0000002DE9FE4328
:104EF00005460E46F0B2012806D002285FD00328EE
:104F000079D004285AD15FE04FF0FF37EC6C2CB910
:104F100040F26B42574958A0FEF7F2FE2CE0286C95
:104F2000C168284688470746781C00B925E0FBF78A
:104F30008DF98146A28821688F54A088401CA080EA
:104F4000A188A86CC0F38F20814201DB0020A080E3
:104F5000A088E18888420CD1E088401CE0800120D4
:104F6000A060E188A86CC0F38F20814201DB0020A3
:104F7000E0804846FBF76EF9D1E700BFE869E8B189
:104F8000FBF764F98146A088E188884203DBA088AA
:104F9000E188401A06E0E088A188411AA86CC0F3B5
:104FA0008F20401A80464846FBF754F9B8F1000FAD
:104FB00003D041462846EA69904700BF56E02C6D71
:104FC0002046FEF717FF51E02C6D002301AA694629
:104FD000201DFFF7B5F801AA02A9201DFFF770F800
:104FE00050B901202060286C022307692846DDE9BA
:104FF0000121B84702E008E000202060286A18B1CB
:105000002A6A28460099904730E03712A86CC0F30E
:105010008F20B0B9EC6C2CB940F2C94215491BA0E5
:10502000FEF76EFEE86928B940F2CB4211491CA098
:10503000FEF766FE39462846EA6990470020206060
:1050400013E0FBF703F9804639462846FFF7A2FC38
:105050002846FFF74BFC07464046FBF7FBF8E8699C
:1050600018B139462846EA69904700BF00BFBDE83D
:10507000FE830000D183000872785F6669666F2046
:10508000213D2052545F4E554C4C000072785F64B5
:105090006D6120213D2052545F4E554C4C00000064
:1050A00073657269616C2D3E706172656E742E72EB
:1050B000785F696E64696361746520213D20525494
:1050C0005F4E554C4C0000002DE9F04704468846E1
:1050D00016461F462CB940F23F420F490FA0FEF77B
:1050E0000FFE254600202875E86128621048686296
:1050F0001048A8621048E8621048286310486863A6
:105100001048A863EF63B2B241462846FFF73AFB66
:1051100081464846BDE8F087BB8300087365726925
:10512000616C20213D2052545F4E554C4C000000D4
:1051300061610008A9610008395F00084564000842
:10514000B1640008BD600008F0B504460D4616467F
:10515000301D20F0070040380146002203E00C4FCC
:1051600041F82270521C102AF9D30D624FF0000C46
:10517000C1F824C0C1F828C0C1F82CC0C1F830C0A3
:105180004B638C634FF0807CC1F83CC0F0BD0000E5
:10519000EFBEADDE1CB50E4903C9CDE900010D4CD3
:1051A0004FF4E13000900C480C4908640846DDE9F2
:1051B0000012C0E911122046FCF7D8F9234640F24C
:1051C000031207A10548FFF77FFF00201CBD000068
:1051D000CC7B000800000020787B00089C010020A8
:1051E000756172743100000010B500BF00BFFBF79D
:1051F0002DF8044608480078401C0749087000BF95
:105200000648006810B105480068804700BF204686
:10521000FBF720F810BD00005800002050000020CF
:1052200001480078704700005800002010B500BF0A
:1052300000BFFBF70BF8044608480078401E0749FA
:10524000087000BF0648006810B105480068804734
:1052500000BF2046FAF7FEFF10BD000058000020F6
:105260005400002070B504462068A0F1140500BF6A
:1052700000BF284601F020FC002070BD2DE9F04160
:1052800005460C469046204601F0C8FCB8F1000FD8
:1052900003D0B8F1010F23D105E004F11401284631
:1052A00000F07FF81CE02E680FE0A6F1140794F8D8
:1052B000350097F83510884206DA04F1140107F139
:1052C000140000F06EF802E03668AE42EDD100BF87
:1052D000AE4204D104F11401284600F062F800BF88
:1052E00000BF0020BDE8F08110B5044604F11400B1
:1052F00000F036F8002010BD0FB438B505A80090B6
:105300007F211548009B049A02F000F804467F2C88
:1053100000D97F241148006818B90F48FFF7E0FC56
:1053200015E00E480068058B0C480068008B40F0C3
:1053300040000A49096808832346074A00210748B4
:105340000068FFF779FA05480068058300BF002070
:10535000009038BC5DF814FB800300206000002042
:1053600040600060704740600060704740600060CF
:1053700070474060006070470268516002680A60D0
:105380000160486070470268516002680A6001600D
:10539000486070470268516002680A6001604860B6
:1053A00070474268116042684A6041600860704717
:1053B0004268116042684A60416008607047014677
:1053C0000868884201D1012070470020FCE70146AF
:1053D0000868884201D1012070470020FCE701469F
:1053E0000868884201D1012070470020FCE701468F
:1053F0000868884201D1012070470020FCE701467F
:105400000868884201D1012070470020FCE701466E
:1054100000200A4601E01268401C13688B42FAD152
:105420007047D0E900215160D0E90012116040605E
:1054300000607047D0E900215160D0E9001211608E
:1054400040600060704700002DE9F047054600BF4E
:10545000FAF7FCFE8146FFF7E3FE48B17D497EA0E6
:10546000FFF74AFF4FF484727A4985A0FEF748FCA3
:105470004846FAF7EFFE00BF15B90020BDE8F087F7
:10548000E81C20F00300A84201D000BF01E000BFEB
:1054900000BFE81C20F003057A480068854203D964
:1054A00000BF00BF0020E9E70C2D00D20C254FF013
:1054B000FF31754800F06EFC744800687449096853
:1054C000461ABBE0724800688419608800287BD1C6
:1054D00006F10C006168081AA84275D306F10C00A9
:1054E0006168091A05F11800814230D306F10C00F9
:1054F00000EB05086648006800EB08074FF4F5501C
:1055000038800020788060687860BE60C4F80480CD
:10551000012060805B48796800680C30814205D0CA
:105520005B49786809680844C0F8088059480168F0
:1055300005F10C000844574908605748006809689D
:10554000884219D2534800685349086014E001208A
:1055500060804F4960680968611A401A4D490968BE
:1055600008444C4908604C4800680968884203D2E6
:1055700048480068484908604FF4F5502080434887
:105580000068844224D107E04048006840684049F0
:10559000096808443D4908603C480068408828B1D3
:1055A0003A4800683D4909688842EDD137480068AB
:1055B0003A49096888420BD034480068408838B1BD
:1055C00040F27512234900E034E035A0FEF798FB65
:1055D0002D4800F097FB04F10C0028442F4909687E
:1055E000884205D940F279121A493748FEF788FBFC
:1055F00004F0030028B14FF4BD7216493348FEF79A
:105600007FFB04F0030028B140F27B12114930A067
:10561000FEF776FB00BF00BF00BF3948006828B125
:10562000294604F10C00364A1268904700BF04F185
:105630000C0023E7164800683044466811480068AB
:10564000401BB0423FF63EAF0F4800F05BFB00202E
:1056500014E700002A80000846756E6374696F6E57
:105660005B25735D207368616C6C206E6F742062C3
:1056700065207573656420696E204953520A0000E5
:10568000300000007C000020000400207800002092
:1056900070000020800000208400002074000020A2
:1056A00028286C66726565203D3D20686561705FE5
:1056B000656E6429207C7C2028216C667265652DCE
:1056C0003E75736564292900BC85000814850008AF
:1056D00028282872745F75696E7433325F74296D7F
:1056E000656D292026202852545F414C49474E5F62
:1056F00053495A45202D20312929203D3D20300095
:10570000680000202DE9F0410F46164604463D464C
:105710003346102B28D305F0030C04F003084CEAA1
:10572000080CBCF1000F1FD121462A4610E052F8A8
:1057300004CB41F804CB52F804CB41F804CB52F827
:1057400004CB41F804CB52F804CB41F804CB103B16
:10575000102BECD204E052F804CB41F804CB1B1F11
:10576000042BF8D20C46154603E015F801CB04F8DB
:1057700001CB5FEA030CA3F10103F6D1BDE8F08190
:1057800070B50C46014623468B4210D29D188D42BF
:105790000DD91144134405E05D1E2B462E784D1E95
:1057A00029462E701500A2F10102F5D108E003E0B0
:1057B00013F8015B01F8015B1500A2F10102F7D1BA
:1057C00070BDF0B50C460546E6B2042A15D300F0CC
:1057D000030797B9014646EA062343EA034304E078
:1057E00008C108C108C108C1103A102AF8D201E066
:1057F00008C1121F042AFBD20D4601E005F8016B17
:105800001700A2F10102F9D1F0BD00002DE9F04727
:1058100006460F4600BFFAF719FD8146FFF700FD67
:1058200048B1224922A0FFF767FD4FF4A4721F4937
:1058300029A0FEF765FA4846FAF70CFD00BF30468E
:1058400000F0D8F805462DB94FF4A672174923A0E9
:10585000FEF756FAE868FFF7F7FD044614B9002092
:10586000BDE8F08700212046EA68FFF7AAFF26720C
:105870000020607208223946204600F0D8FE00BFA2
:105880001C48006818B120461A490968884700BFBB
:10589000FAF7DCFC804604F10C01281DFFF76CFDD3
:1058A0004046FAF7D7FC2046DAE70000718000088E
:1058B00046756E6374696F6E5B25735D20736861F6
:1058C0006C6C206E6F74206265207573656420694E
:1058D0006E204953520A000030000000696E666F66
:1058E000726D6174696F6E20213D2052545F4E5578
:1058F0004C4C00002801002070B504462CB94FF430
:10590000C372134913A0FEF7FBF9207A00F0800060
:1059100028B140F287120E4913A0FEF7F1F900BF3B
:105920001C48006818B120461A490968884700BF1A
:1059300000202072FAF78AFC054604F10C00FFF7FC
:1059400070FD2846FAF786FC2046FFF7ABF870BDDD
:10595000848000086F626A65637420213D20525480
:105960005F4E554C4C00000021286F626A656374DD
:105970002D3E7479706520262052545F4F626A650F
:1059800063745F436C6173735F53746174696329FB
:10599000000000002C01002070B504462CB940F234
:1059A00025120D490DA0FEF7ABF900BF10480068A5
:1059B00018B120460E490968884700BF00202072B0
:1059C000FAF744FC054604F10C00FFF72AFD2846CF
:1059D000FAF740FC70BD0000608000086F626A65E5
:1059E000637420213D2052545F4E554C4C00000002
:1059F0002C010020024600210AE0074800EB0110BC
:105A00000078904203D1044800EB01107047491C14
:105A10000A29F2DB0020F9E78800002010B50446CF
:105A20002CB940F2BB12044904A0FEF769F9207AB0
:105A300020F0800010BD0000AF8000086F626A6532
:105A4000637420213D2052545F4E554C4C000000A1
:105A50002DE9F04104460D4616462846FFF7CAFFD9
:105A6000074627B9FA22114911A0FEF749F945F076
:105A70008000207208223146204600F0D8FD00BF89
:105A80001148006818B120460F490968884700BFCF
:105A9000FAF7DCFB804604F10C01381DFFF76CFCC3
:105AA0004046FAF7D7FBBDE8F081000051800008BE
:105AB000696E666F726D6174696F6E20213D205250
:105AC000545F4E554C4C00002801002010B5044690
:105AD0002CB94FF4D472064906A0FEF711F9207ACA
